:100000000C9434000C9446040C9446040C9446045E
:100010000C9446040C9446040C9446040C94460438
:100020000C9446040C9446040C9446040C94460428
:100030000C9446040C9446040C9446040C94460418
:100040000C9446040C9446040C9446040C94460408
:100050000C9446040C9446040C9446040C944604F8
:100060000C9446040C9446041124EFEFEDBFE8E035
:10007000EEBFA0E0B1E0D1E0E8E4FDE002C0059110
:100080000D93AA31BD07D9F7AAE1B1E0D2E00C94F3
:100090004A001D92A233BD07E1F70C94B4002F92E1
:1000A000A1E02A2E0E948B06822D2F9008954F9258
:1000B0003F922F921C01A1E04A2E0E949306F1016B
:1000C0008083842D2F903F904F9008951F930F931E
:1000D00021E0612D72EC81E0912D422F0E94EE050E
:1000E00047E550E06FE470E084ED91E0012D112DC3
:1000F00021EBA7ED3A2F0E942F0547E550E06FE472
:1001000070E088E791E0012D112D22EBA7ED3A2F49
:100110000E942F0547E550E06FE470E08CE191E02C
:10012000012D112D22EBA7ED3A2F0E942F0547E557
:1001300050E06FE470E088E791E0012D112D22EB93
:10014000A7ED3A2F0E942F0547E550E06FE470E0DD
:100150008CE191E0012D112D22EBA7ED3A2F0E94A9
:100160002F050F911F9108950E94D2000E946600F2
:100170000E947002392E282E28E031E0A101612D65
:10018000712D812D912D0E94D5030E94C601C101C0
:100190000E9482030E94C60188EEA3E09A2F0E946B
:1001A0009A06E6CF08950895CF93DF93DC01EB0123
:1001B000FA011E161F068CF4CA17DB0771F048F00F
:1001C000AE0FBF1FCE0FDF1F2E912A933197E1F79D
:1001D00004C02D9129933197E1F7DF91CF910895D4
:1001E000911581057105610551054105310521050F
:1001F00011F40E94BC011F930F93FF92EF92DF92C4
:10020000CF92BF92AF929F928F927F926F925F92A6
:100210004F923F922F92B1E099248824772466244C
:100220005524442433242224A0E4AA0CBB1CCC1C57
:10023000DD1CEE1CFF1C001F111F221C331C441C64
:10024000551C661C771C881C991C221A330A440A08
:10025000550A660A770A880A990A10F0AB2A08C07C
:10026000220E331E441E551E661E771E881E991EC2
:10027000AA9509F0DACF912F802F7F2D6E2D5D2D5D
:100280004C2D3B2D2A2D2F903F904F905F906F90DB
:100290007F908F909F90AF90BF90CF90DF90EF9026
:1002A000FF900F911F910895E12FE927F1E0911937
:1002B00082F4909580957095609550954095309515
:1002C00020952F0F311D411D511D611D711D811D77
:1002D000911D111982F410950095F094E094D0943A
:1002E000C094B094A094AF0EB11CC11CD11CE11CF1
:1002F000F11C011D111D0E94F000E7FF11C0909537
:100300008095709560955095409530952095F1E0D9
:100310002F0F311D411D511D611D711D811D911D2D
:100320000895161617065CF4680F791F05C0FC01C6
:10033000408321E0820F911D86179707C0F308952F
:100340000E94910108954F923F922F921C01CA0181
:10035000FC014080342D212D631772070CF4462ECA
:10036000442D4395512DB1010E94D400F1014082EA
:100370002F903F904F900895212D512D612D712D7B
:1003800088EC912D422F0E944102089550E342E0F3
:10039000E52FF42F208131812115310589F0E52FDA
:1003A000F42F20819181612D312DE52FF42F608371
:1003B0003183822F412D512D612D712D0E944102DB
:1003C00008950E94D30008950E94E1010E94420412
:1003D0000895282F4FEF312D4217390738F43FEF9A
:1003E000412D30931A0140931B0104C020931A0140
:1003F00090931B010E94E4019F928F927F926F92D3
:100400005F924F923F922F92682E392E462E872E62
:10041000542E752E209104013091050121153105CE
:1004200079F0662D732D812D912D252D372D442D9D
:10043000582D2090040190900501E22DF92D099589
:10044000362D232D3093020120930301242D382DC6
:100450002093000130930101252D372D20930601B3
:100460003093070180910201909103010E94E901FC
:100470002F903F904F905F906F907F908F909F90C4
:100480000895DF93CF93CDB7DEB7C650D0400FB6F7
:10049000F894DEBF0FBECDBF6A837B834C835D8340
:1004A0002A812B812C812D81212D312D4A814B8157
:1004B0004C814D81512D412D2C833D835A834B839B
:1004C0004C815D816A817B810E94FC01CA5FDF4FA4
:1004D0000FB6F894DEBF0FBECDBFCF91DF91089568
:1004E00088E791E00895CF92BF92AF929F928F924A
:1004F0007F926F925F924F923F922F92C82E292E39
:10050000342E452E562E672E712C812CEC2DF22D7B
:1005100024813581EC2DF22D40855185241B350B2E
:10052000922EA32E35C0EC2DF22D64857585EC2D11
:10053000F22D20853185620F731F852D962D870D35
:10054000981D492D5A2D0E94D40039184A08790C5B
:100550008A1CEC2DF22D20853185290D3A1DEC2DBC
:10056000F22D208731878C2D922DEC2DF22D2089B4
:10057000B188E22FFB2D0995EC2DF22D24813581D8
:10058000EC2DF22D40855185241B350B922EA32E88
:100590009314A4040CF4C7CFEC2DF22D648575855B
:1005A000EC2DF22D20853185620F731F852D962D40
:1005B000870D981D432D542D0E94D400EC2DF22D53
:1005C00020853185230D341DEC2DF22D20873187B8
:1005D0002F903F904F905F906F907F908F909F9063
:1005E000AF90BF90CF900895CF92BF92AF929F925D
:1005F0008F927F926F925F924F923F922F92C82E6E
:10060000292E342E452E562E672EEC2DF22D2481C8
:100610003581EC2DF22D40855185241B350B432F60
:10062000512D37FD5095352F722E4A01A32E3CC017
:10063000EC2DF22D84859585EC2DF22D20853185CC
:10064000820F931F672D782DA0E24A2F0E94A001F0
:100650003718480859086A08272D382DEC2DF22D37
:1006600040855185420F531FEC2DF22D4087518755
:100670008C2D922DEC2DF22D2089B188E22FFB2DAF
:100680000995EC2DF22D34814581EC2DF22D20853C
:100690005185321B450B542F212D47FD2095422FAC
:1006A000732E852E922EA42E731484049504A60412
:1006B0000CF4BECFEC2DF22D84859585EC2DF22D1A
:1006C00020853185820F931F632D742DA0E24A2F60
:1006D0000E94A001232D342DEC2DF22D4085518553
:1006E000420F531FEC2DF22D408751872F903F90E2
:1006F0004F905F906F907F908F909F90AF90BF9042
:10070000CF9008953F922F921C012091300230919A
:1007100031022115310509F045C0F10152814381B3
:1007200021EB37ED5217430708F436C0352F642FFD
:10073000515B474D21EB77ED3217670709F425C070
:10074000352F642F5150410941E0212D34176207A4
:1007500009F022C0E6E4F0E0E20DF31D4081512DE6
:1007600067E470E0620D731DC1010E947302F10124
:100770002289338921153105A9F0C101F1012289AE
:100780002388E22FF22D09950DC029E6312D209303
:1007900030023093310206C027E6312D209330021B
:1007A000309331022F903F9008957F926F925F9225
:1007B0004F923F922F923B01BC01342E452E222EA8
:1007C000532E20913002309131022115310509F06C
:1007D00052C0E32DF42D5281238131EB47ED5317A5
:1007E000240708F442C0352F422F515B274D81EB7F
:1007F00097ED3817490709F431C0352F422F515072
:10080000210951E0212D3517420709F02EC0E22DB4
:10081000F52D5081312D212D412D561537052607F7
:1008200047077CF4E22DF52D9081312D812D212D6E
:10083000A301491B530B680B720B832D942D0E944F
:10084000F402E22DF52D4081512D61E070E0620D42
:10085000751D832D942D0E9473020DC029E6312D44
:10086000209330023093310206C027E6312D2093C9
:100870003002309331022F903F904F905F906F90F5
:100880007F9008950C944404F894FFCFFFCF08950F
:10089000DF93CF93DF92CF92BF92AF929F928F92CE
:1008A0007F926F925F924F923F922F92CDB7DEB7B9
:1008B000C350D0400FB6F894DEBF0FBECDBFD82EC8
:1008C000C92E1B012A013901812C912CA12C1AC09F
:1008D00082E090E08C0F9D1FB1012D2DBC2CE22FEA
:1008E000FB2D0995811571F02A812A3011F4A1E0C0
:1008F000AA2EF2010A80008221E0420E511C21E062
:10090000820E911C8614970414F41A1409F3C4017E
:10091000CD5FDF4F0FB6F894DEBF0FBECDBF2F9077
:100920003F904F905F906F907F908F909F90AF908F
:10093000BF90CF90DF90CF91DF9108954F923F927B
:100940002F92382E492E26E130E0230D341D922FB0
:10095000232E212D312D2093300230933102E32DAF
:10096000F42D2481E32DF42D3581E32DF42D4485E0
:10097000E32DF42D5585E92FF22D6481E92FF22D19
:100980007581E92FF22D8281E92FF22D93810E944A
:100990004804E32DF42D82879387312D212DE32DFB
:1009A000F42D308721872F903F904F900895AF927C
:1009B0009F928F927F926F925F924F923F922F926F
:1009C0002C01F201208531852115310509F43DC046
:1009D00026E130E0240D351D1901612C712CF20146
:1009E0008484958414C0F1016481F1017581F4015E
:1009F0008081F1012081A180E22FFA2D099518163E
:100A000061F021E0820E911C21E0620E711CF20166
:100A1000208531856216730634F3F2012085318515
:100A20002615370539F025E6312D20933002309315
:100A3000310206C0212D312D209330023093310236
:100A4000312D212DF201308721872F903F904F903B
:100A50005F906F907F908F909F90AF9008951F93BD
:100A60000F93BF92AF929F928F927F926F925F92FD
:100A70004F923F922F921C012B014A013901B02E57
:100A8000A12EC101412D6CE5712D0E9491012FEF26
:100A90003FEFF1012083318330E1212DF1013483D7
:100AA00025832AE430E0220D331DF10124873587A8
:100AB000212D312DF1012687378745E151E086E46C
:100AC00090E0820D931D63E0712D0E94A30126E149
:100AD00030E0220D331DA901762D672DF1017283BF
:100AE0006383372F262F81EB97ED3817290708F4FA
:100AF00020C0832F922F315B274DA1EB6A2EA7EDEB
:100B00007A2E8615970551F0832F922F31502109A7
:100B100031E0212D8317920739F00BC0212D312DA3
:100B2000F1012083318305C031E0212DF1013083B3
:100B3000218327E434E0F101248B358B312D212DE5
:100B4000F101328B238B262F31EB67ED73172607CC
:100B500008F423C0372F622F715B274D81EB97ED8F
:100B60003817690751F0372F622F7150210971E052
:100B7000212D3717620739F010C02EE934E0F1015A
:100B8000208B318B0AC027ED34E0F101208B318BB3
:100B900027ED34E0F101228B338B342F452F242DA8
:100BA000552DE32FF42F20835183282D592DE32F2A
:100BB000F42F228353835B2D2A2DE32FF42F5483AC
:100BC00025832F903F904F905F906F907F908F90F4
:100BD0009F90AF90BF900F911F9108951F930F9317
:100BE000FF92EF92DF92CF92BF92AF928F927F925D
:100BF0006F925F924F923F922F922B013C01842E75
:100C0000811409F430C052016301E12CF12C012D53
:100C1000112D22E0AA0CBB1CCC1CDD1CEE1CFF1C01
:100C2000001F111F2A95B1F7A10C24E2B21E24EF78
:100C3000C21ED11CE11CF11C011D111D23E01695E3
:100C40000795F794E794D794C794B794A7942A95F7
:100C5000B1F79201A301612D712D812D912D0E947B
:100C6000540119012FC052016301E12CF12C012D17
:100C7000112D23E0AA0CBB1CCC1CDD1CEE1CFF1CA0
:100C8000001F111F2A95B1F7A10C24E2B21E24EF18
:100C9000C21ED11CE11CF11C011D111D24E0169582
:100CA0000795F794E794D794C794B794A7942A9597
:100CB000B1F79201A301612D712D812D912D0E941B
:100CC00054011901322D232D412D512D315021096F
:100CD000410951092093C5003093C400282D220FEB
:100CE0003091C000322B3093C00028E12093C10026
:100CF00026E02093C2002F903F904F905F906F901E
:100D00007F908F90AF90BF90CF90DF90EF90FF904B
:100D10000F911F910895282F3091C0003072E1F398
:100D20002093C60008952091C0002078E1F38091BF
:100D3000C60008958115910531F0AFE9BFE0119724
:080D4000F1F70197D1F70895C6
:100D480000000000000000000B48656C6C6F207705
:0A0D58006F726C6400020D0A0000C7
:00000001FF
