:100000000C9472000C9462060C9462060C946206C6
:100010000C9462060C9462060C9462060C946206C0
:100020000C9462060C9462060C9462060C946206B0
:100030000C9462060C9462060C9462060C946206A0
:100040000C9462060C9462060C9462060C94620690
:100050000C9462060C9462060C9462060C94620680
:100060000C9462060C9462060C9462060C94620670
:100070000C9462060C9462060C9462060C94620660
:100080000C9462060C9462060C9462060C94620650
:100090000C9462060C9462060C9462060C94620640
:1000A0000C9462060C9462060C9462060C94620630
:1000B0000C9462060C9462060C9462060C94620620
:1000C0000C9462060C9462060C9462060C94620610
:1000D0000C9462060C9462060C9462060C94620600
:1000E0000C9462061124EFEFEDBFE1E2EEBFA0E059
:1000F000B2E0D2E0E4EEF1E102C005910D93AE373B
:10010000BD07D9F7AEE7B2E0D3E00C9488001D92AA
:10011000A43EBD07E1F70C943E012F92A1E02A2EE8
:100120000E94D908822D2F9008954F923F922F92CE
:100130001C01A1E04A2E0E94E108F1018083842D78
:100140002F903F904F9008951F930F932F92612D02
:1001500072EC81E0912D41E00E943C082091E20385
:100160002090E3032115210441F080913C039091FC
:100170003D03E22FF22D099502C08EE393E045E99D
:1001800050E06DE870E0012D112D21EBA7ED3A2F25
:100190000E947D072091E2032090E30321152104B2
:1001A00041F08091DE029091DF02E22FF22D09955D
:1001B00002C080EE92E045E950E06DE870E0012D6C
:1001C000112D22EBA7ED3A2F0E947D072091E2032B
:1001D0002090E3032115210441F080918002909149
:1001E0008102E22FF22D099502C082E892E045E9F2
:1001F00050E06DE870E0012D112D22EBA7ED3A2FB4
:100200000E947D072091E2032090E3032115210441
:1002100041F08091DE029091DF02E22FF22D0995EC
:1002200002C080EE92E045E950E06DE870E0012DFB
:10023000112D22EBA7ED3A2F0E947D072091E203BA
:100240002090E3032115210441F0809180029091D8
:100250008102E22FF22D099502C082E892E045E981
:1002600050E06DE870E0012D112D22EBA7ED3A2F43
:100270000E947D072F900F911F9108950E945C01AD
:100280000E94A4000E94B003392E282E2DE632E0F1
:10029000A101612D712D812D912D0E9459050E9482
:1002A000BF02C1010E94D3040E94BF0288EEA3E0F6
:1002B0009A2F0E94E808E6CF0E94030608950E9444
:1002C0005D060895CF93DF93DC01EB01FA011E1662
:1002D0001F068CF4CA17DB0771F048F0AE0FBF1F82
:1002E000CE0FDF1F2E912A933197E1F704C02D9195
:1002F00029933197E1F7DF91CF9108959115810509
:1003000071056105510541053105210511F40E9472
:10031000B5021F930F93FF92EF92DF92CF92BF929D
:10032000AF929F928F927F926F925F924F923F9285
:100330002F92B1E0992488247724662455244424FC
:1003400033242224A0E4AA0CBB1CCC1CDD1CEE1C14
:10035000FF1C001F111F221C331C441C551C661C53
:10036000771C881C991C221A330A440A550A660A0B
:10037000770A880A990A10F0AB2A08C0220E331EA9
:10038000441E551E661E771E881E991EAA9509F0EA
:10039000DACF912F802F7F2D6E2D5D2D4C2D3B2D93
:1003A0002A2D2F903F904F905F906F907F908F906D
:1003B0009F90AF90BF90CF90DF90EF90FF900F9104
:1003C0001F910895E12FE927F1E0911982F49095AA
:1003D00080957095609550954095309520952F0F9C
:1003E000311D411D511D611D711D811D911D111971
:1003F00082F410950095F094E094D094C094B09459
:10040000A094AF0EB11CC11CD11CE11CF11C011D3C
:10041000111D0E947E01E7FF11C090958095709597
:1004200060955095409530952095F1E02F0F311D46
:10043000411D511D611D711D811D911D08951616CF
:1004400017065CF4680F791F05C0FC01408321E0AA
:10045000820F911D86179707C0F308950E941F020F
:1004600008954F923F922F921C01CA01FC014080D7
:10047000342D212D631772070CF4462E442D43951D
:10048000512DB1010E946201F10140822F903F90F5
:100490004F900895FC013081218131502109FC01E8
:1004A00030832183FC01308121813115210581E0D8
:1004B00009F0812D0895282FE22FF92F40815181D5
:1004C00031E0430F511DE22FF92F408351830895EE
:1004D0003F922F92FC012081318121153105D9F005
:1004E000FC0120803180A8E02A1A3108312D212D0D
:1004F000FC0130832183F1012481258121155CF0E9
:1005000084E090E0820D931D0E944A02811519F04B
:10051000C1010E947B032F903F9008955F924F92FC
:100520003F922F921C012B01F10120813181241572
:100530003505B1F04114510469F0F201349721916D
:1005400030811216130634F48CEF9FEF840D951D45
:100550000E945B02C1010E946802F1014082518247
:100560002F903F904F905F900895212D512D612D38
:10057000712D88EC912D422F0E944C0308952F92EB
:100580002091E2032090E3032115210449F080919A
:100590009A0390919B03E22FF22D0995492F02C0F7
:1005A0008CE943E0E82FF42F2081318121153105BA
:1005B00089F0E82FF42F20819181512D312DE82FE2
:1005C000F42F50833183822F412D512D612D712DB8
:1005D0000E944C032F9008950E945F0108950E948D
:1005E000EC020E9401060895282F4FEF312D42178B
:1005F000390738F43FEF412D30937E0240937F025C
:1006000004C020937E0290937F020E94EF029F928B
:100610008F927F926F925F924F923F922F92682EAD
:10062000392E462E872E542E752E20910B02309196
:100630000C022115310579F0662D732D812D912D38
:10064000252D372D442D582D20900B0290900C0213
:10065000E22DF92D0995362D232D30930402209398
:100660000502242D382D2093020230930302252DFC
:10067000372D20930D0230930E0280910402909149
:1006800005020E94F4022F903F904F905F906F9070
:100690007F908F909F900895DF93CF93CDB7DEB773
:1006A000C650D0400FB6F894DEBF0FBECDBF6A83F0
:1006B0007B834C835D832A812B812C812D81212D8D
:1006C000312D4A814B814C814D81512D412D2C83FF
:1006D0003D835A834B834C815D816A817B810E947B
:1006E0000703CA5FDF4F0FB6F894DEBF0FBECDBF62
:1006F000CF91DF9108952F9220911502209016023C
:10070000E22FF22D09952F9008950E940106409145
:10071000060250910702209108023091090241150A
:1007200051052105310519F00E94850303C021E020
:1007300020930A0281E0912D08950E948503089577
:10074000089508950895089524E4E9E2F2E03EE969
:1007500043E0A32FB42F01900D922A95E1F708955D
:100760002F922091E2032090E3032115210441F010
:100770008091DE029091DF02E22FF22D099502C0F6
:1007800080EE92E02F900895CF92BF92AF929F9209
:100790008F927F926F925F924F923F922F92C82ECC
:1007A000292E342E452E562E672E712C812CEC2DA1
:1007B000F22D24813581EC2DF22D40855185241BAD
:1007C000350B922EA32E35C0EC2DF22D6485758548
:1007D000EC2DF22D20853185620F731F852D962D0E
:1007E000870D981D492D5A2D0E94620139184A081B
:1007F000790C8A1CEC2DF22D20853185290D3A1DAE
:10080000EC2DF22D208731878C2D922DEC2DF22DA1
:100810002089B188E22FFB2D0995EC2DF22D248142
:100820003581EC2DF22D40855185241B350B922E00
:10083000A32E9314A4040CF4C7CFEC2DF22D6485E1
:100840007585EC2DF22D20853185620F731F852D66
:10085000962D870D981D432D542D0E946201EC2D7D
:10086000F22D20853185230D341DEC2DF22D2087AE
:1008700031872F903F904F905F906F907F908F9037
:100880009F90AF90BF90CF900895CF92BF92AF92BC
:100890009F928F927F926F925F924F923F922F9290
:1008A000C82E292E342E452E562E672EEC2DF22DD5
:1008B00024813581EC2DF22D40855185241B350B8B
:1008C000432F512D37FD5095352F722E4A01A32EFF
:1008D0003CC0EC2DF22D84859585EC2DF22D2085E4
:1008E0003185820F931F672D782DA0E24A2F0E9439
:1008F0002E023718480859086A08272D382DEC2D84
:10090000F22D40855185420F531FEC2DF22D40876B
:1009100051878C2D922DEC2DF22D2089B188E22F5C
:10092000FB2D0995EC2DF22D34814581EC2DF22D16
:1009300020855185321B450B542F212D47FD2095D5
:10094000422F732E852E922EA42E731484049504A8
:10095000A6040CF4BECFEC2DF22D84859585EC2DEC
:10096000F22D20853185820F931F632D742DA0E217
:100970004A2F0E942E02232D342DEC2DF22D40857E
:100980005185420F531FEC2DF22D408751872F9038
:100990003F904F905F906F907F908F909F90AF901F
:1009A000BF90CF9008954F923F922F921C012091BB
:1009B000E2034090E3032115410441F080919A0342
:1009C00090919B03E22FF42D099502C08CE993E0EE
:1009D000FC01208131812115310509F066C0F1014A
:1009E0005281438121EB37ED5217430708F447C08A
:1009F000352F642F515B474D21EB77ED3217670799
:100A000009F426C0352F642F5150410941E0212DB2
:100A10003417620709F033C0E6E4F0E0E20DF31D9D
:100A20004081512D67E470E0620D731DC1010E9489
:100A3000C403F101228933892115310509F435C038
:100A4000C101F10122892388E22FF22D09952DC0E1
:100A50002091E2032090E3032115210441F08091CD
:100A60009A0390919B03E22FF22D099502C08CE925
:100A700093E039E6212DFC013083218316C02091BB
:100A8000E2032090E3032115210441F080919A03B1
:100A900090919B03E22FF22D099502C08CE993E01F
:100AA00037E6212DFC01308321832F903F904F901A
:100AB0000895AF929F928F927F926F925F924F9222
:100AC0003F922F92362E472E582E692E742E852E49
:100AD000222E932E2091E203A090E3032115A1047E
:100AE00041F080919A0390919B03E22FFA2D099592
:100AF00002C08CE993E0FC01208131812115310590
:100B000009F075C0E72DF82D5281238131EB47EDB7
:100B10005317240708F455C0352F422F515B274D3A
:100B200061EB77ED3617470709F434C0352F422FB4
:100B30005150210951E0212D3517420709F041C0DC
:100B4000E22DF92D5081412D212D312D53154405D4
:100B50002505360594F4E22DF92D9081812D312D56
:100B6000212D432D542D652D762D491B580B630BDC
:100B7000720B872D982D0E944504E22DF92D40819E
:100B8000512D61E070E0620D791D872D982D0E9436
:100B9000C4032DC02091E2032090E303211521041A
:100BA00041F080919A0390919B03E22FF22D0995D9
:100BB00002C08CE993E039E6212DFC0130832183CA
:100BC00016C02091E2032090E3032115210441F097
:100BD00080919A0390919B03E22FF22D099502C018
:100BE0008CE993E037E6212DFC01308321832F909F
:100BF0003F904F905F906F907F908F909F90AF90BD
:100C000008950C9460060E94A40308959F928F9209
:100C10007F926F925F924F923F922F9220900F029D
:100C200030901002F10140805180A1E04A1A510831
:100C300051140CF439C0AFEF6A2EAFEF7A2E21E0D9
:100C4000620E711C9301220F331F220F331FF1011B
:100C5000E20FF31F329621913081F901808091805B
:100C60002CE0820E911C0BC082E090E0880D991D53
:100C7000612D712D0E948E022CE0820E911C930139
:100C8000220F331F220F331FF101E20FF31F34969F
:100C900021913081F901208131818216930620F360
:100CA000641475040CF4CBCF2F903F904F905F905D
:100CB0006F907F908F909F9008950E9406060895F0
:100CC000F894FFCFFFCF0895DF93CF93DF92CF92B9
:100CD000BF92AF929F928F927F926F925F924F924C
:100CE0003F922F92CDB7DEB7C350D0400FB6F894E5
:100CF000DEBF0FBECDBFD82EC92E1B012A01390180
:100D0000812C912CA12C1AC082E090E08C0F9D1FA9
:100D1000B1012D2DBC2CE22FFB2D0995811571F011
:100D20002A812A3011F4A1E0AA2EF2010A80008261
:100D300021E0420E511C21E0820E911C8614970482
:100D400014F41A1409F3C401CD5FDF4F0FB6F89401
:100D5000DEBF0FBECDBF2F903F904F905F906F9042
:100D60007F908F909F90AF90BF90CF90DF90CF916A
:100D7000DF9108956F925F924F923F922F922C01D4
:100D800026E130E0240D351D19012091E203609029
:100D9000E3032115610441F080919A0390919B0334
:100DA000E22FF62D099502C08CE993E0212D312D1B
:100DB000FC0120833183F2012481F2013581F201AB
:100DC0004485F2015585F1016481F1017581F101DC
:100DD0008281F10193810E946406F20182879387E8
:100DE000212D312DF201208731872F903F904F9098
:100DF0005F906F900895AF929F928F927F926F92C3
:100E00005F924F923F922F92382E492EE32DF42D70
:100E1000208531852115310509F465C026E130E0D2
:100E2000230D341D222E532E612C712CE32DF42D15
:100E30008484958417C0E22DF52D6481E22DF52D73
:100E40007581F4018081E22DF52D2081A180E22FB2
:100E5000FA2D0995181669F021E0820E911C21E007
:100E6000620E711CE32DF42D208531856216730608
:100E700014F3E32DF42D2085318526153705B9F0BF
:100E80002091E2032090E3032115210441F0809199
:100E90009A0390919B03E22FF22D099502C08CE9F1
:100EA00093E035E6212DFC013083218316C020918B
:100EB000E2032090E3032115210441F080919A037D
:100EC00090919B03E22FF22D099502C08CE993E0EB
:100ED000312D212DFC0130832183212D312DE32D56
:100EE000F42D208731872F903F904F905F906F9027
:100EF0007F908F909F90AF9008951F930F93BF9214
:100F0000AF929F928F927F926F925F924F923F9299
:100F10002F921C012B014A013901B02EA12EC101D3
:100F2000412D6CE5712D0E941F022FEF3FEFF10163
:100F30002083318330E1212DF101348325832AE49C
:100F400030E0220D331DF10124873587212D312D0D
:100F5000F101268737874AE752E086E490E0820D68
:100F6000931D63E0712D0E94310226E130E0220DD5
:100F7000331DA901762D672DF10172836383372F0D
:100F8000262F81EB97ED3817290708F420C0832F0F
:100F9000922F315B274DA1EB6A2EA7ED7A2E861595
:100FA000970551F0832F922F3150210931E0212DE7
:100FB0008317920739F00BC0212D312DF1012083C9
:100FC000318305C031E0212DF1013083218323E6F7
:100FD00036E0F101248B358B312D212DF101328B3F
:100FE000238B262F31EB67ED7317260708F423C0F8
:100FF000372F622F715B274D81EB97ED381769070B
:1010000051F0372F622F7150210971E0212D3717D0
:10101000620739F010C02AEB36E0F101208B318BEA
:101020000AC02BEF36E0F101208B318B2BEF36E03D
:10103000F101228B338B342F452F242D552DE32F97
:10104000F42F20835183282D592DE32FF42F228351
:1010500053835B2D2A2DE32FF42F548325832F9068
:101060003F904F905F906F907F908F909F90AF9048
:10107000BF900F911F9108951F930F93FF92EF92CE
:10108000DF92CF92BF92AF928F927F926F925F92D8
:101090004F923F922F922B013C01842E811409F430
:1010A00030C052016301E12CF12C012D112D22E001
:1010B000AA0CBB1CCC1CDD1CEE1CFF1C001F111F4E
:1010C0002A95B1F7A10C24E2B21E24EFC21ED11C56
:1010D000E11CF11C011D111D23E016950795F794E5
:1010E000E794D794C794B794A7942A95B1F792013F
:1010F000A301612D712D812D912D0E94E201190115
:101100002FC052016301E12CF12C012D112D23E0A0
:10111000AA0CBB1CCC1CDD1CEE1CFF1C001F111FED
:101120002A95B1F7A10C24E2B21E24EFC21ED11CF5
:10113000E11CF11C011D111D24E016950795F79483
:10114000E794D794C794B794A7942A95B1F79201DE
:10115000A301612D712D812D912D0E94E2011901B4
:10116000322D232D412D512D315021094109510995
:101170002093C5003093C400282D220F3091C00069
:10118000322B3093C00028E12093C10026E0209349
:10119000C2002F903F904F905F906F907F908F9004
:1011A000AF90BF90CF90DF90EF90FF900F911F9185
:1011B0000895282F3091C0003072E1F32093C600CB
:1011C00008952091C0002078E1F38091C600089531
:1011D0008115910531F0AFE9BFE01197F1F7019763
:0411E000D1F70895A6
:1011E40000000000000000000000000000000000FB
:1011F40002000000000000000000000000000000E9
:10120400000000000000000000000000009D0385B5
:10121400038503850385038503850385038503858A
:1012240003870385039F03A003A103A203A30385EC
:10123400038503850385038503850385038503856A
:10124400038503850385038503850385030B4865AF
:0E1254006C6C6F20776F726C6400020D0A00E4
:00000001FF
